S00B000045564D2E7372656331
S11300000C942A000C9447000C9447000C9447006D
S11300100C9447000C9447000C9447000C94470040
S11300200C9447000C9447000C9447000C94470030
S11300300C9447000C9447000C9447000C94470020
S11300400C9447000C9447000C9447000C94470010
S11300500C94470011241FBECFE5D8E0DEBFCDBF0E
S113006010E0A0E6B0E0E4EBF7E002C005900D92EA
S1130070A037B107D9F710E0A0E7B0E001C01D92A6
S1130080A437B107E1F70E942C020C94D8030C9416
S1130090000040E00E94500008950E945601089517
S11300A0823451F1833420F4813409F07BC007C0D9
S11300B0833409F43EC0843409F074C057C041301D
S11300C069F42AB381E090E0AC0102C0440F551FEB
S11300D06A95E2F7BA01622B6ABB08952AB381E0FC
S11300E090E0AC0102C0440F551F6A95E2F7BA01D3
S11300F0609562236ABB0895413069F427B381E0B7
S113010090E0AC0102C0440F551F6A95E2F7BA01B2
S1130110622B67BB089527B381E090E0AC0102C075
S1130120440F551F6A95E2F7BA016095622367BBD5
S11301300895413069F424B381E090E0AC0102C039
S1130140440F551F6A95E2F7BA01622B64BB089508
S113015024B381E090E0AC0102C0440F551F6A95BE
S1130160E2F7BA016095622364BB0895413069F4F3
S113017021B381E090E0AC0102C0440F551F6A95A1
S1130180E2F7BA01622B61BB089521B381E090E0EC
S1130190AC0102C0440F551F6A95E2F7BA0160959D
S11301A0622361BB0895823451F1833420F4813495
S11301B009F07BC007C0833409F43EC0843409F0DD
S11301C074C057C0413069F42BB381E090E0AC01B6
S11301D002C0440F551F6A95E2F7BA01622B6BBB4C
S11301E008952BB381E090E0AC0102C0440F551F89
S11301F06A95E2F7BA01609562236BBB08954130BA
S113020069F428B381E090E0AC0102C0440F551FAB
S11302106A95E2F7BA01622B68BB089528B381E0BE
S113022090E0AC0102C0440F551F6A95E2F7BA0191
S11302306095622368BB0895413069F425B381E079
S113024090E0AC0102C0440F551F6A95E2F7BA0171
S1130250622B65BB089525B381E090E0AC0102C038
S1130260440F551F6A95E2F7BA016095622365BB96
S11302700895413069F422B381E090E0AC0102C0FA
S1130280440F551F6A95E2F7BA01622B62BB0895C9
S113029022B381E090E0AC0102C0440F551F6A957F
S11302A0E2F7BA016095622362BB08958234F1F0EB
S11302B0833420F4813409F04FC006C0833441F103
S11302C0843409F049C036C029B381E090E0062E99
S11302D002C0880F991F0A94E2F730E08223932327
S11302E002C0959587956A95E2F7089526B381E053
S11302F090E0062E02C0880F991F0A94E2F730E0BE
S11303008223932302C0959587956A95E2F7089511
S113031023B381E090E0062E02C0880F991F0A944F
S1130320E2F730E08223932302C0959587956A957E
S1130330E2F7089520B381E090E0062E02C0880F12
S1130340991F0A94E2F730E08223932302C0959523
S113035087956A95E2F7089580E008958234B9F0AC
S1130360833418F48134C9F505C08334E9F0843446
S1130370A1F527C02BB381E090E0AC0102C0440F8B
S1130380551F6A95E2F7BA0162276BBB089528B33B
S113039081E090E0AC0102C0440F551F6A95E2F77A
S11303A0BA01622768BB089525B381E090E0AC01EF
S11303B002C0440F551F6A95E2F7BA01622765BB74
S11303C0089522B381E090E0AC0102C0440F551FB0
S11303D06A95E2F7BA01622762BB0895823461F03C
S11303E0833418F4813469F405C0833439F08434D7
S11303F041F406C06ABB089567BB089564BB0895C1
S113040061BB0895823461F0833418F4813469F453
S113041005C0833439F0843441F406C06BBB0895BD
S113042068BB089565BB089562BB0895823461F08A
S1130430833418F4813471F405C0833439F084347E
S113044049F406C089B3089586B3089583B3089523
S113045080B3089580E008950E94220382E463E05B
S11304600E94490082E464E00E94490082E465E05D
S11304700E94490082E466E00E94490082E467E049
S11304800E94490080E690E00E949E0381E06CE0B7
S11304900E94B70384E690E00E949E0382E061E03C
S11304A00E94B70388E690E00E949E0382E06CE01D
S11304B00E94B7038CE690E00E949E03C0E6D0E061
S11304C004E610E00F2EF8E6EF2EF0E0FF2EF02DFC
S11304D00F2EFCE6CF2EF0E0DF2EF02D82E463E059
S11304E00E944D00813079F4809173008F5F809376
S11304F0730081E063E00E94B70380917300805D24
S11305000E948C036CC082E464E00E944D00813040
S113051079F4809172008F5F8093720081E06EE0C5
S11305200E94B70380917200805D0E948C0357C0C3
S113053082E465E00E944D00813079F4809171007D
S11305408F5F8093710082E063E00E94B703809123
S11305507100805D0E948C0342C082E466E00E94C8
S11305604D00813079F4809170008F5F809370002A
S113057082E06EE00E94B70380917000805D0E946B
S11305808C032DC082E467E00E944D00813039F570
S11305901092700010927100109272001092730009
S11305A061E00E94B703CE010E949E0381E06CE0EB
S11305B00E94B703C8010E949E0382E061E00E948A
S11305C0B703C7010E949E0382E06CE00E94B70358
S11305D0C6010E949E0381E061E00E94B7038FEF91
S11305E091EEA4E081509040A040E1F700C00000EB
S11305F075CF82E460E041E00E94D3008FE99FE080
S11306000197F1F700C0000082E460E040E00E943E
S1130610D3008FE99FE00197F1F700C0000008952F
S1130620682F81E40E94020282E461E040E00E94BB
S1130630D3000E94F9028FEC97E00197F1F700C014
S1130640000008958FEF91EEA4E081509040A04007
S1130650E1F700C0000081E460E041E00E94500046
S113066081E461E041E00E94500081E462E041E005
S11306700E94500081E463E041E00E94500081E464
S113068064E041E00E94500081E465E041E00E94A2
S1130690500081E466E041E00E94500081E467E09C
S11306A041E00E94500082E460E041E00E9450007A
S11306B082E462E041E00E94500082E461E041E0B3
S11306C00E94500082E462E040E00E94D30088E38C
S11306D00E941003AFECB7E01197F1F700C00000DF
S11306E08CE00E9410038FEC97E00197F1F700C0B3
S11306F0000081E00E941003AFE1BEE41197F1F71E
S113070000C0000086E00E9410038FEC97E0019780
S1130710F1F700C000000895682F81E40E940202EE
S113072082E461E041E00E94D3000E94F9028FEC70
S113073097E00197F1F700C000000895CF93DF938D
S1130740EC018881882331F021960E948C038991E1
S11307508823D9F7DF91CF91089581E00E94100397
S11307608FE19EE40197F1F700C000000895282F5F
S11307702150223070F4613170F4662371F08130BD
S113078019F4962F91580AC0823041F4962F91544F
S113079005C090E803C090E801C090E8892F0E944A
S11307A010038FEC97E00197F1F700C00000089563
S10707B0F894FFCFE7
S11307B4413D3000423D3000433D3000443D300073
S9030000FC
